:020000040800F2
:1000000000290020A901000833140008FF1200088D
:1000100031140008EF0200088918000800000000F1
:10002000000000000000000000000000491500086A
:10003000F102000800000000351400084B1500080C
:10004000C3010008C3010008C3010008C301000880
:10005000C3010008C3010008C3010008C301000870
:10006000C3010008C3010008C3010008C301000860
:10007000C3010008C3010008C3010008C301000850
:10008000C3010008C3010008C3010008000000000C
:10009000000000000000000000000000C301000894
:1000A000F5150008C3010008C3010008C3010008DA
:1000B000C3010008C3010008C3010008C301000810
:1000C000C3010008C3010008C3010008C301000800
:1000D000C3010008C3010008C301000800000000BC
:1000E000C3010008C3010008C301000800000000AC
:1000F000000000000000000000000000C301000834
:1001000000000000C3010008C3010008C30100088B
:1001100000000000000000000000000000000000DF
:10012000C3010008C3010008C3010008C30100089F
:10013000C3010008000000000000000000000000F3
:10014000000000000000000000000000C3010008E3
:10015000C3010008C3010008C3010008C30100086F
:10016000C3010008C30100080000000000000000F7
:10017000000000000000000000000000000000007F
:1001800000000000C30100080000000000000000A3
:10019000C3010008DFF80CD000F07AF800480047EF
:1001A0001D20000800290020064880470648004717
:1001B000FEE7FEE7FEE7FEE7FEE7FEE7FEE7FEE717
:1001C000FEE7FEE7E5150008950100082DE9F05F60
:1001D0000546002092469B468846064681464024B6
:1001E0001BE0284641464746224600F041F8534668
:1001F0005A46C01A914110D311461846224600F0C3
:1002000028F82D1A67EB01084F46224601200021ED
:1002100000F01FF817EB00094E41201EA4F1010465
:10022000DFDC484631462A464346BDE8F09FD2B25D
:1002300001E000F8012B491EFBD270470022F6E7CF
:1002400010B513460A4604461946FFF7F0FF20464C
:1002500010BD202A04DB203A00FA02F1002070478A
:100260009140C2F1200320FA03F3194390407047F4
:10027000202A04DB203A21FA02F00021704721FAFB
:1002800002F3D040C2F12002914008431946704762
:10029000064C074D06E0E06840F0010394E80700D3
:1002A00098471034AC42F6D3FFF778FFB02000082F
:1002B000D020000830B58C1810F8012B12F00F0375
:1002C00001D110F8013B120906D110F8012B03E00F
:1002D00010F8015B01F8015B5B1EF9D101E001F848
:1002E000013B521EFBD1A142E6D3002030BDFEE708
:1002F000704772B6FEE700002DE9F84FDFF8B8A1AD
:100300000022012403254FF00F090AF1040BAAF182
:10031000040E00BF0B6804FA02F63340B34273D1F7
:100320000F7907F00307012F01D0022F16D187683C
:100330004FEA420805FA08FC27EA0C07D1F80CC07E
:100340000CFA08FC4CEA070CC0F808C04768B74331
:100350000E79C6F3001696403E4346600E79F6438A
:10036000B6070DD0C768560005FA06FC27EA0C0749
:10037000D1F808C00CFA06FC4CEA070CC0F80CC017
:100380000E7906F00306022E10D1D60800EB86087F
:10039000D8F8206057074FEAD76C09FA0CF7BE432C
:1003A0000F6907FA0CF73743C8F8207006684FEA60
:1003B000420C05FA0CF7BE430F7907F0030707FA62
:1003C0000CF7374307604E6816F4403F6DD03B4E44
:1003D000376847F480473760366822F0030706F431
:1003E00080460096364E07EB060CDCF80868970747
:1003F0003F0F09FA07F826EA0806DFF8C8804045EB
:1004000003D14FF000081EE04FE0DFF8BC8040450C
:1004100002D14FF0010816E0DFF8B080404502D16C
:100420004FF002080FE0DFF8A880404502D14FF0FE
:10043000030808E0DFF89C80404502D14FF0040833
:1004400001E04FF0070808FA07F848EA0608CCF878
:100450000888DAF800605746D1F804C09E435FEA86
:10046000CC2C00D51E433E60DBF800605F46D1F81F
:1004700004C09E435FEA8C2C00D51E433E60DEF82C
:1004800000607746D1F804C09E435FEA8C3C00D5FB
:100490001E433E60084F083F3E68D1F804C09E43AB
:1004A0005FEACC3C00D51E433E60521C102AFFF48C
:1004B00031AFBDE8F88F0000083C014044380240ED
:1004C00000300140000002400004024000080240E9
:1004D000000C0240001002400AB18161704709041B
:1004E000FBE7000001488068704700000814002006
:1004F0000248816802781144816070470814002026
:100500000B4810B5016841F400710160016841F4C5
:1005100080610160016841F480710160032000F096
:100520006FF80F2000F006F800F024F8002010BD4E
:10053000003C024070B50D4D04464FF47A712878A6
:10054000B1FBF0F00A490968B1FBF0F000F08FFC54
:1005500048B9102C07D200222146501E00F030F876
:1005600000206C6070BD012070BD000008140020E8
:10057000141400200A4808B5016841F48041016064
:10058000006800F4804000900548001F016841F0B9
:1005900080510160006800F08050009008BD0000AC
:1005A00044380240002809DB00F01F02012191407D
:1005B0004009800000F1E020C0F800117047000001
:1005C000F0B40E4B1B680C46C3F30223C3F10705BE
:1005D000042D00D90425191D072901D2002300E0AC
:1005E000DB1E012606FA05F1491E214099409E4076
:1005F000761E16403143F0BC01F0B2BA0CED00E0BB
:10060000064900F0070208684FF6FF03184040EA69
:100610000220034A10430860704700000CED00E020
:100620000000FA052DE9F0470E46050065D0DFF819
:100630001481D8F80000F7B200F00700B04207D2EA
:1006400088F80070D8F8000000F00700B04254D1DC
:1006500028683D4C810712D5400703D5206840F437
:10066000E05020602878000703D5206840F46040FF
:1006700020602068A96820F0F000084320602878F6
:10068000C0072DD0304968680839012812D00228E7
:1006900013D0032811D00968890700292DDA2168B1
:1006A00021F0030101432160FFF71CFF814641F265
:1006B000883A0EE009688903EFE709688901ECE7E9
:1006C000FFF710FFA0EB0901514502D90320BDE857
:1006D000F0872068696800F00C00B0EB810FEFD163
:1006E000D8F80010404601F00701B14207D9077061
:1006F000006800F00700B04201D00120E7E7287849
:10070000400705D52068E96820F4E05008432060E0
:100710002878000706D52068296920F4604040EA5F
:10072000C100206000F038F82168084AC1F30311C5
:10073000515CC8400649086006480068FFF7FAFEA9
:100740000020C4E7003C024008380240982000081E
:10075000141400200C14002004480549006809689E
:10076000044AC1F38221515CC84070471414002030
:1007700008380240A82000080448054900680968B4
:10078000044AC1F34231515CC84070471414002040
:1007900008380240A8200008154810B5006810F07D
:1007A0000C02144813D01449042A0FD0082A0ED181
:1007B0000F4C241F2268236802F03F025B0207D51A
:1007C0002068C0F38810A0FB010106E0084610BDB8
:1007D0002168C1F38811A1FB00010023FFF7F6FC9B
:1007E0002168C1F30141491C4900B0FBF1F010BD83
:1007F000083802400024F40040787D012DE9F84FCC
:1008000004006ED02078DFF84C93C007A9F10405EE
:100810004AD009F104000168C1F38101012908D01F
:100820000068C0F3810002280AD1D9F80000400214
:1008300006D52868800337D560680028E1D033E00A
:100840006068B0F5803F10D0B0F5A02F286810D0B8
:1008500020F480302860286820F4802028606068B8
:10086000A8B1FFF73FFE06460DE0286840F480304F
:10087000F4E740F480202860F7E700BFFFF732FE7E
:10088000801B642873D828688003F7D50CE0FFF735
:1008900029FE064605E000BFFFF724FE801B642802
:1008A000F0D828688003F7D42078DFF8AC8280077E
:1008B0004FF0000A3ED5A748001D016811F00C0F4B
:1008C00008D00068C0F3810002280BD1D9F80000DD
:1008D000400207D42868800716D5E068012800D1B7
:1008E00012E033E1E068B8B10120C8F80000FFF77A
:1008F000F9FD064605E000BFFFF7F4FD801B022866
:10090000C0D828688007F7D52868216920F0F8004A
:1009100040EAC10028600DE0C8F800A0FFF7E2FD42
:10092000064604E0FFF7DEFD801B02281FD828687A
:100930008007F7D42078000722D5864F8748616961
:10094000703771B101210160FFF7CCFD064604E06C
:10095000FFF7C8FD801B022809D838688007F7D543
:100960000EE0C0F800A0FFF7BDFD064605E082E0FE
:10097000FFF7B8FD801B02287DD838688007F7D4C0
:100980002078400768D5DFF8CCB100270BF13C0B8D
:10099000DBF80000C0000BD4DBF8001041F0805100
:1009A000CBF80010DBF80000012700F08050009029
:1009B0006B4E3068C00510D4306840F480703060F1
:1009C000FFF790FD009005E0FFF78CFD0099401ABD
:1009D000022850D83068C005F6D55E4EA0686C3647
:1009E00001280FD00528306810D020F001003060B9
:1009F000306820F004003060A068B8B1FFF772FDE5
:100A000000900FE0306840F00100F4E740F004008F
:100A10003060F7E7FFF766FD0099411A41F2883030
:100A2000814266D830688007F4D50EE0FFF75AFDA2
:100A3000009007E0FFF756FD0099411A41F2883017
:100A4000814256D830688007F4D42FB1DBF800100B
:100A500021F08051CBF80010A069C8B33D49091DB1
:100A60000968C1F3810102294AD00228504607D003
:100A7000C8F8600000E03CE0FFF734FD04463BE0CE
:100A80004746C8F86000FFF72DFD064605E000BFA9
:100A9000FFF728FD801B02282BD828688001F7D497
:100AA000D4E907010843A16A2E4A490802EB014133
:100AB000626A41EA8211084394F82C1040EA01610D
:100AC000C9F8001001203866FFF70CFD044606E067
:100AD0003EE000BFFFF706FD001B022809D828688A
:100AE0008001F7D534E000BFFFF7FCFC001B0228B3
:100AF00002D90320BDE8F88F28688001F4D427E0EC
:100B00000128F7D0D9F80000E26900F48001914291
:100B10001CD1226A00F03F01914217D147F6C07103
:100B2000626A0140B1EB821F10D1A26A4FF0FF331D
:100B300000F4403103EB5202B1EB024F06D194F8BE
:100B40002C1000F07060B0EB016F01D00120D1E7F4
:100B50000020CFE70438024000004742800E4742A1
:100B6000007000400000FFFF70B5040009D0606A0B
:100B7000002540B125616561A56294F8510040B13E
:100B80000CE0012070BD6068B0F5827FF4D0E561B3
:100B9000F2E784F85050204600F044F8022084F830
:100BA00051002068016821F040010160A08821897E
:100BB00000F4827001F404410843A18901F400614A
:100BC0000843217C01F002010843217D01F001016D
:100BD0000843218B01F400710843217F01F03801A3
:100BE000084394F8201001F080010843218D01F49E
:100BF0000051084321680860A069042101EA1040FF
:100C000094F8241001F0100108432168486020681E
:100C1000C16921F40061C1616565012084F851005A
:100C2000002070BD10B586B0044614216846FFF759
:100C300005FB13492068884220D112480021026830
:100C400042F480520260006800F4805005900D4824
:100C50001438026842F001020260006800F00100EE
:100C60000590E02000900220CDE9010103200390CF
:100C70000520049069460448FFF73EFB06B010BD0E
:100C80000030014044380240000002402DE9F84F96
:100C9000044690F8500000270A9E1D4692468B4657
:100CA0004FF0010901280ED0012084F85000FFF711
:100CB00019FC804694F85100616801280CD0B1F508
:100CC000827F07D102E00220BDE8F88FA16809B950
:100CD000042801D00227C2E0BBF1000F27D0BAF1EF
:100CE000000F24D01DB394F85100042802D0052031
:100CF00084F8510000206065C4F838A0E587A58716
:100D0000C4F830B0E586A586206460642068016878
:100D1000490603D4016841F040010160E068B0F584
:100D2000006F606805D0E8B3012D46D07FE0012751
:100D300095E008B1012D39D1206B21680088C86089
:100D4000206B801C2063E08E401EE0862EE0206831
:100D5000816889070FD5E18E69B1B9F1010F0AD118
:100D6000216B0988C160206B801C2063E08E401ECF
:100D7000E0864FF0000920688168C9070CD0E18F38
:100D800051B1C068A16B0880A06B801CA063E08F8C
:100D9000401EE0874FF00109FFF7A4FBA0EB08001D
:100DA000B04200E009E001D3701C50D1E08E002871
:100DB000CDD1E08F0028CAD13FE0206B21680078B8
:100DC0000873206B401C2063E08E401EE0862EE0FE
:100DD0002068816889070FD5E18E69B1B9F1010FEB
:100DE0000AD1216B09780173206B401C2063E08ECF
:100DF000401EE0864FF0000920688168C9070CD0CA
:100E0000E18F51B1C068A16B0870A06B401CA0635A
:100E1000E08F401EE0874FF00109FFF763FBA0EB76
:100E20000800B04202D3701C01D010E07EB1E08E09
:100E30000028CDD1E08F0028CAD142463146204655
:100E400000F0FAFA28B101272020606507E00327A7
:100E500005E0A06818B92068C1688068009001208A
:100E600084F85100002084F8500038462CE710B573
:100E7000401EB0F1807F01D3012010BD4FF0E0246F
:100E800060610F21601700F06BFE0020A061072059
:100E90002061002010BD7047704710B5040003D0DA
:100EA00094F83D0010B107E0012010BD002084F847
:100EB0003C00204600F01EF8022084F83D00211D71
:100EC000206800F09DFB012084F8460084F83E0075
:100ED00084F83F0084F8400084F8410084F8420020
:100EE00084F8430084F8440084F8450084F83D0009
:100EF000002010BD08B500680B49884212D10B488C
:100F0000016841F4803101600068002200F4803003
:100F1000009011461820FFF753FBBDE80840182049
:100F2000FFF740BB08BD00000040014044380240CC
:100F300070B5044690F83C000025012817D0012622
:100F400084F83C60022084F83D002068826822F02A
:100F5000770222F47F4282600868502838D00DDC86
:100F600020284FD005DC90B3102811D14AE0022090
:100F700070BD302846D040280AD13BE060282FD0F1
:100F800070280DD0B0F5805F03D0B0F5005F12D0AF
:100F9000012584F83D60002084F83C00284670BD9F
:100FA000CB68D1E90121206800F076FB20688168D8
:100FB00041F0770109E0CB68D1E90121206800F018
:100FC0006BFB2068816841F480418160E1E719E0B2
:100FD000CA684968206800F071FB5021206806E06B
:100FE000CA684968206800F07AFB6021206800F038
:100FF0005DFBCEE7CA684968206800F05FFB4021CE
:101000002068F4E7226801461046F0E7704770B5A3
:101010000446006801694FF00005C943890715D4EB
:10102000C168C943890711D4E91E016101202077F5
:10103000206880698007204602D0FFF7E7FF04E0C0
:1010400000F098F8204600F096F8257720680169AE
:10105000C943490717D4C168C943490713D46FF07E
:1010600004010161022020772068806910F4407F2C
:10107000204602D0FFF7CAFF04E000F07BF82046CC
:1010800000F079F8257720680169C943090716D46B
:10109000C168C943090712D46FF008010161042037
:1010A00020772068C0698007204602D0FFF7AEFF96
:1010B00004E000F05FF8204600F05DF82577206836
:1010C0000169C943C90617D4C168C943C90613D405
:1010D0006FF010010161082020772068C06910F4CA
:1010E000407F204602D0FFF791FF04E000F042F875
:1010F000204600F040F8257720680169C943C907F8
:1011000008D1C168C943C90704D1891E01612046BD
:1011100000F032F820680169C943090609D4C168A2
:10112000C943090605D46FF0800101612046FFF72D
:10113000B2FE20680169C943490609D4C168C943A0
:10114000490605D46FF040010161204600F015F812
:1011500020680169C94389060BD4C168C94389065F
:1011600007D46FF0200101612046BDE87040FFF711
:1011700093BE70BD704770477047704770B50400EC
:1011800004D094F83D00002510B106E0012070BDA8
:1011900084F83C50204600F023F8242084F83D00D9
:1011A0002068C16821F40051C160204600F0AAFA0D
:1011B0002068016921F4904101612068416921F0B2
:1011C0002A0141612068C16841F40051C160256471
:1011D000202084F83D0084F83E00002070BD00000F
:1011E00010B586B0044614216846FFF727F8144965
:1011F0002068884221D113480021026842F0100281
:101200000260006800F0100005900E481438026873
:1012100042F001020260006800F0010005904FF406
:10122000C06000900220CDE9010103200390072057
:10123000049069460448FFF75FF806B010BD00004F
:101240000010014044380240000002402DE9F843FC
:10125000044690F83D001F4616460D4620284CD106
:10126000C5B1BEB194F83C00012846D0012084F8F5
:101270003C004FF00008C4F84080212084F83D0075
:10128000FFF730F9A6848146E684A068B0F5805F58
:1012900003D004E00120BDE8F883206928B12E4680
:1012A0005FF0000584F83C800EE00026FAE780211C
:1012B000204600F0ADFAA0B9AEB116F8010B2168D6
:1012C0004860E08C401EE084E08C4B464FF000020A
:1012D00000970028EBD14FF04001204600F098FA2B
:1012E00030B10320D7E735F8020BC0F30800E6E77A
:1012F000202084F83D000020CDE70220CBE7FEE768
:1013000030B587B014216846FEF798FF12480024D4
:10131000016841F080010160016801F080010591E0
:10132000016841F00101016000680C4D00F001000E
:101330000590012210212846FFF7CEF810200090DA
:101340000120CDE901040320039069462846FEF7F9
:10135000D3FF07B030BD000030380240000002402B
:10136000104810B50E4901604FF4827141600021B0
:101370008160C1604FF400720161C0E90512102262
:10138000C0E90721416281620A21C162FFF7ECFBDB
:10139000002803D0BDE81040FEF7ABBF10BD000031
:1013A000003001401C1400201FB50021114800919D
:1013B000019102910E4A039102605322C0E901217A
:1013C0004FF6FF72C0E9032180218161FFF765FDBF
:1013D00008B1FEF78EFF4FF4805000906946054833
:1013E000FFF7A6FD002801D0FEF783FF1FBD000018
:1013F00000400140741400200C4810B50A490160F7
:101400004FF4E1314160002181600C22C160C0E9EC
:1014100004128161C161FFF7B1FE002803D0BDE86D
:101420001040FEF766BF10BD00100140BC14002044
:10143000FEE7FEE77047000038B504461248134B3C
:101440000068B0FBF3F04FF47A7358430090606883
:10145000B0F5827F0DD10B460092002280212046FC
:1014600000F016F870B1606D40F020006065032058
:1014700038BD009830B1401E009020688068C0439D
:101480000006F6D5002038BD1414002000366E0189
:101490002DE9F8431E46914688460446089DFFF70D
:1014A00021F8401B351AFFF71DF80746254800684C
:1014B000C0F3CB30684338E0701C37D0FFF712F828
:1014C000C01BA84203D215B1009860B32CE020687D
:1014D000416821F0E00141606068B0F5827F0BD186
:1014E000A068B0F5004F02D0B0F5806F04D120683D
:1014F000016821F040010160A06AB0F5005F09D1E8
:101500002068016821F4005101602068016841F4FD
:1015100000510160012084F85100002084F850003F
:101520000320BDE8F8830025401E009020688168F4
:1015300038EA010004D000214945BDD10020F0E780
:101540000121F9E7141400207047FEF7D1BF000015
:1015500030B593B030216846FEF770FE14210CA818
:10156000FEF76CFE1D480025016841F080510160C6
:10157000006800F0805011901948016821F4404142
:1015800041F4004101600068022400F440401190E1
:1015900001200090000401908001CDE9064019204F
:1015A0000890A820CDE9090404200B906846FFF7B5
:1015B00025F908B172B6FEE70CA90F2081E83100C9
:1015C0004FF48050CDE90F0502210CA8FFF72AF84F
:1015D000002801D072B6FEE713B030BD403802409B
:1015E000007000400248016841F4700101607047DA
:1015F00088ED00E00148FFF70ABD000074140020E8
:10160000F0B502681D4B1E4C9F031E4D1E4E9842A6
:1016100007D0B84205D0A04203D0A84201D0B042C2
:1016200004D122F0700C4A6842EA0C02984210D0B1
:10163000B8420ED0A0420CD0A8420AD0B04208D086
:10164000124CA04205D0124CA04202D0114CA04234
:1016500003D122F44074CA6822434C6922F080020C
:10166000224302608A68C2620A688262984201D19B
:101670000969016301214161F0BD000000000140E2
:101680000004004000080040000C00400040014001
:10169000004401400048014010B5846842EA03223A
:1016A00024F47F440A432243826010BD826822F002
:1016B00070020A4342F007018160704710B5036A67
:1016C000046A24F001040462846924F0F00444EA0A
:1016D000021423F00A020A438461026210BD10B5AD
:1016E000036A23F0100303628369046A23F47043DE
:1016F00043EA023224F0A00343EA0111826101624D
:1017000010BD000070B5044600680169E26821F46C
:101710004051114301612169A068E2690843616990
:10172000114308432168CA6849F20C639A43024393
:10173000CA6020684169A26921F440711143416186
:1017400031492068884202D03049884202D1FFF7EF
:1017500013F801E0FFF700F8E2690023192164257E
:101760003226B2F5004F626828D0A0FB0101930F2A
:101770009200FEF72BFD0146B0FBF5F06FF018026A
:10178000504301EB800006EB0010B0FBF5F000F0D9
:10179000F002B1FBF5F002EB0012B1FBF5F06FF0D7
:1017A0001803584301EB800006EB0010B0FBF5F086
:1017B00000F00F0021681044886070BDA0FB01019B
:1017C00092185B41FEF702FD0146B0FBF5F0020105
:1017D000B1FBF5F06FF01803584301EB800006EB06
:1017E000C000B0FBF5F000F0F80002EB4002B1FBE6
:1017F000F5F0584301EB800006EBC000B0FBF5F0BC
:1018000000F00700D6E7000000100140001401407E
:101810002DE9F041984617460E460446069D27E0FE
:10182000681C25D02DB1FEF75DFEA0EB0800A84294
:101830001ED920680C3050E8001F21F4D07140E818
:101840000012002AF5D12068143050E8001F21F062
:10185000010140E80012002AF5D1202084F83D0063
:1018600084F83E00002084F83C000320BDE8F081AD
:101870002068006836EA000004D00020B842CFD0CB
:101880000020F3E70120F9E7FEE700000122102124
:101890000148FEF721BE0000000002400022102196
:1018A0000148FEF719BE0000000002402DE9F0419A
:1018B0001549164E00254FF4807700EA010400BF59
:1018C00044EA052006EB05213A4600F02BF86D1C92
:1018D000102DF5D30025B04644EA05210CA000F0F8
:1018E0002FF9002608EB05270BA0B95D00F028F9B9
:1018F000761CFF2EF8DD0AA000F022F96D1C102DD9
:10190000EADBBDE8F081000000F0FF0000150020D8
:10191000253036583A0000002530325820000000AB
:101920000D0A000070B515460E460446FFF7B6FFD7
:10193000032000F027F8C4F3074000F023F8C4F3B5
:10194000072000F01FF8E0B200F01CF8002404E0CB
:10195000FF2000F017F83055641CAC42F8D3BDE806
:101960007040FFF793BF10B5FFF798FF052000F018
:1019700009F8FF2000F006F80446FFF787FF20462D
:1019800010BD000001B582B04FF47A7000900123C1
:1019900001AA02A90248FFF779F99DF804000EBDDB
:1019A0001C14002010B50E4900EA0104012000F0CB
:1019B00078F8FFF773FF2020FFF7E4FF200CFFF714
:1019C000E1FFC4F30720FFF7DDFFE0B2FFF7DAFF26
:1019D000FFF75CFFBDE81040002000F062B8000097
:1019E00000F0FF002DE91040FFF7BDFFC007FBD15D
:1019F00010BD00002DE9F047DFF84C80034600EAF7
:101A00000804E51A871805F5805589462A4600F02E
:101A100059F804F580544FF4805A07EA080609E0A3
:101A200009EB05015246204600F04CF804F58054BD
:101A300005F58055A642F3D8BA1B09EB05013046DF
:101A4000BDE8F04700F03EB800F0FF0070B5044676
:101A500015460E46012000F024F8FFF7C3FFFFF7FC
:101A60001DFF0220FFF78EFFC4F30740FFF78AFF38
:101A7000C4F30720FFF786FFE0B2FFF783FF0024DF
:101A8000AC4201D2305D00E0FF20FFF77BFF641C19
:101A9000FF2CF5DDFFF7FAFEBDE870400020AFF344
:101AA000008010B50446FFF7F9FE14B1012C02D0F6
:101AB00004E0042000E00620FFF764FFBDE81040CA
:101AC000FFF7E4BE2DE9F05F8B461B4900261B4D56
:101AD000804600EB0209374600EA01044FF4807AA1
:101AE00044EA072005EB07215246FFF71BFF7F1C46
:101AF000102FF5D3404608E000F47062C3B21BF823
:101B000006102A44401CD154761C4845F4D3404664
:101B1000FFF748FFFFF766FF0026574644EA062016
:101B200005EB06213A46FFF791FFFFF75BFF761CB6
:101B3000102EF3D3BDE8F09F00F0FF000015002049
:101B40000FB4054B10B503A9044A029800F028F819
:101B500010BC5DF814FB00000520000818140020DC
:101B60000907090E002804DB00F1E02080F80014CA
:101B7000704700F00F0000F1E02080F8141D70475E
:101B800002E008C8121F08C1002AFAD17047704746
:101B9000002001E001C1121F002AFBD170470000A4
:101BA0002DE9FF4F8DB00F460546002606E025289B
:101BB0000BD0DDE90F1290476D1C761C28780028A9
:101BC000F5D111B03046BDE8F08F0024A246A14601
:101BD0000122EC4900E0044315F8013F203B02FAE2
:101BE00003F00842F7D128782A2810D06FF02F028E
:101BF0002878A0F13001092914D80AEB8A0102EBF8
:101C0000410144F0020400EB010A6D1CF0E701CF32
:101C10005FEA000A03D544F40054CAF1000A44F014
:101C200002046D1C28782E2817D115F8010F44F0F6
:101C300004042A280ED06FF02F022878A0F130017A
:101C400009290AD809EB890102EB410100EB0109DE
:101C50006D1CF2E757F8049B6D1C28786C280FD098
:101C600006DC4C2817D068280DD06A2814D104E06F
:101C7000742810D07A280FD10DE044F400140AE043
:101C800044F4801401E044F440146978814202D1A4
:101C900004F580146D1C6D1C2A786E2A1FD00CDC94
:101CA000632A31D004DC002A8BD0582A11D1A3E05A
:101CB000642A68D0692A0CD165E0732A2ED004DC2E
:101CC0006F2A73D0702A04D19BE0752A6FD0782ACE
:101CD0006ED01046DDE90F129047761C50E1C4F338
:101CE0000250022806D0032809D0042801CF09D0C9
:101CF000066045E101CFF117C0E9006140E101CF85
:101D000006803DE106703BE117F8040B8DF80000FA
:101D100000208DF80100EB46012003E057F804BBDA
:101D20004FF0FF3061074FF0000102D40DE008F1E1
:101D30000101884649450FDA8045F8DB1BF8081099
:101D40000029F4D108E008F1010188468142FADB5C
:101D50001BF808100029F6D1DDE90F23AAEB0800D3
:101D60008146214600F036F9304400EB080604E0D5
:101D7000DDE90F121BF8010B9047B8F10108F7D20B
:101D800021464846F7E00A21C4F302534FF0000B06
:101D90000891022B04D001CFC117032B09D00AE010
:101DA000FF1D27F00707F7E8020108E032E01FE017
:101DB00020E000B2C117042B01D140B2C117031EAD
:101DC00071F1000307DA4FF0000CD0EB0C006CEB64
:101DD00001012D2302E0230504D52B238DF82430A7
:101DE000012303E0E30701D02023F7E7984658E0FA
:101DF0000A2110E010210EE010204FF0000B089097
:101E00000CE010214FF0000B44F004044FF00809DF
:101E1000089103E008214FF0000B0891C4F302532E
:101E2000022B04D001CF0021032B06D006E0FF1DBA
:101E300027F00707F7E8020103E080B2042B00D186
:101E4000C0B24FF0000823072BD5702A07D0DDF869
:101E500020C08CF0100C5CEA0B0C05D00EE0402387
:101E60008DF82430012308E050EA010306D0302326
:101E70008DF824308DF8252002239846DDF820C007
:101E80008CF0080C5CEA0B0C0BD150EA010301D179
:101E9000630706D530238DF824304FF00108A9F1EF
:101EA0000109582A04D038A20B9208AA0A920BE022
:101EB0003AA2F9E75B46089AFEF788F90B9B9B5C10
:101EC0000A9A521E0A92137050EA0102F2D10A983D
:101ED000ADEB000000F1200B600702D524F4803444
:101EE00001E04FF00109D94502DDA9EB0B0000E04C
:101EF000002000EB0B0141440890AAEB010AE0032B
:101F000006D4DDE90F232146504600F063F806446D
:101F10004FF0000908E009A911F80900DDE90F12E6
:101F2000904709F10109761CC145F4DBE0030CD5AB
:101F3000DDE90F232146504600F04CF8064404E04A
:101F4000DDE90F1230209047761C0899481E089052
:101F50000029F5DC08E00A980A990078491C0A91E2
:101F6000DDE90F129047761CBBF10001ABF1010BCC
:101F7000F1DC21465046DDE90F2300F019F8064454
:101F80006D1C1BE6092801003031323334353637F9
:101F900038396162636465660000000030313233B5
:101FA0003435363738394142434445460000000055
:101FB0002DE9F041044600251E461746880404D446
:101FC00005E039462020B0476D1C641EF9D528462F
:101FD000BDE8F0812DE9F041044600251E469046FB
:101FE000C80301D5302700E02027880404D505E088
:101FF00041463846B0476D1C641EF9D52846BDE8F9
:10200000F081000013B54FF6FF73012269460248C4
:10201000FFF71CF900981CBDBC140020FEF770FAF5
:10202000FFF796FAFFF76CF9FFF7E6F9FFF7BCF94F
:10203000FFF796F90020FFF7B5FCFFF7D3FC4FF44C
:1020400080542046FFF7AEFCFFF7CCFC0F48002180
:1020500041F205420B464354491C9142FADB0B49BD
:102060004FF46060FFF7C6FC0020FFF71FFC08A0DC
:10207000FFF766FD2046FFF719FC05A0FFF760FD9E
:102080004FF40050FFF712FCFEE7000000000020B4
:102090000D0A0D0A0D0A00000000000000000000FB
:1020A00001020304060708090000000001020304FE
:1020B000D0200008000000201C140000B40200081A
:1020C0000C2100081C140020E4140000901B0008E0
:1020D0000AFF01020304050607080901FF01FF01C9
:1020E000FF01FF01FF01FF01FF01FF01FF01FF01F0
:1020F000FF01FF01FF01FF01FF01FF01FF01FF01E0
:0C210000FF0128420192106324F400004B
:040000050800019559
:00000001FF
